{
    "contractName": "WavePortal",
    "abi": [
        {
            "inputs": [],
            "stateMutability": "payable",
            "type": "constructor"
        },
        {
            "anonymous": false,
            "inputs": [
                {
                    "indexed": true,
                    "internalType": "address",
                    "name": "from",
                    "type": "address"
                },
                {
                    "indexed": false,
                    "internalType": "uint256",
                    "name": "timestamp",
                    "type": "uint256"
                },
                {
                    "indexed": false,
                    "internalType": "string",
                    "name": "message",
                    "type": "string"
                }
            ],
            "name": "NewWave",
            "type": "event"
        },
        {
            "inputs": [],
            "name": "getAllWaves",
            "outputs": [
                {
                    "components": [
                        {
                            "internalType": "address",
                            "name": "waver",
                            "type": "address"
                        },
                        {
                            "internalType": "string",
                            "name": "message",
                            "type": "string"
                        },
                        {
                            "internalType": "uint256",
                            "name": "timestamp",
                            "type": "uint256"
                        }
                    ],
                    "internalType": "struct WavePortal.Wave[]",
                    "name": "",
                    "type": "tuple[]"
                }
            ],
            "stateMutability": "view",
            "type": "function"
        },
        {
            "inputs": [],
            "name": "getTotalWaves",
            "outputs": [
                {
                    "internalType": "uint256",
                    "name": "",
                    "type": "uint256"
                }
            ],
            "stateMutability": "view",
            "type": "function"
        },
        {
            "inputs": [
                {
                    "internalType": "string",
                    "name": "_message",
                    "type": "string"
                }
            ],
            "name": "wave",
            "outputs": [],
            "stateMutability": "nonpayable",
            "type": "function"
        }
    ],
    "bytecode": "60e0604052602c608081815261002491610b3b60a03961004260201b6104ee1760201c565b606461003044426100ad565b61003a91906100d3565b60015561014a565b6100898160405160240161005691906100f5565b60408051601f198184030181529190526020810180516001600160e01b0390811663104c13eb60e21b1790915261008c16565b50565b80516a636f6e736f6c652e6c6f67602083016000808483855afa5050505050565b600082198211156100ce57634e487b7160e01b600052601160045260246000fd5b500190565b6000826100f057634e487b7160e01b600052601260045260246000fd5b500690565b600060208083528351808285015260005b8181101561012257858101830151858201604001528201610106565b81811115610134576000604083870101525b50601f01601f1916929092016040019392505050565b6109e2806101596000396000f3fe608060405234801561001057600080fd5b50600436106100415760003560e01c8063449d46c0146100465780639a2cdc081461005b578063bd43a90814610076575b600080fd5b6100596100543660046106da565b61008b565b005b610063610393565b6040519081526020015b60405180910390f35b61007e6103dd565b60405161006d91906107d8565b600160008082825461009d9190610864565b9091555050604080518082019091526016815275257320776176656420772f206d65737361676520257360501b60208201526100da903383610534565b60408051606081018252338152602080820184815242938301939093526002805460018101825560009190915282517f405787fa12a823e0f2b7631cc41b3ba8828b3321ca811111fa75cd3aa3bb5ace600390920291820180546001600160a01b0319166001600160a01b0390921691909117815593518051939493610189937f405787fa12a823e0f2b7631cc41b3ba8828b3321ca811111fa75cd3aa3bb5acf90930192919091019061062b565b50604082015181600201555050606460015442446101a79190610864565b6101b19190610864565b6101bb919061088a565b600181905560408051808201909152601681527514985b991bdb4808c819d95b995c985d19590e88095960521b60208201526101f691610580565b60326001541161034d5761022960405180604001604052806007815260200166257320776f6e2160c81b815250336105c9565b655af3107a4000478111156102a25760405162461bcd60e51b815260206004820152603460248201527f547279696e6720746f207769746864726177206d6f7265206d6f6e657920746860448201527330b7103a34329031b7b73a3930b1ba103430b99760611b60648201526084015b60405180910390fd5b604051600090339083908381818185875af1925050503d80600081146102e4576040519150601f19603f3d011682016040523d82523d6000602084013e6102e9565b606091505b505090508061034a5760405162461bcd60e51b815260206004820152602760248201527f4661696c656420746f207769746864726177206d6f6e65792066726f6d20636f604482015266373a3930b1ba1760c91b6064820152608401610299565b50505b336001600160a01b03167f5f7e16dc676677766a70e9c5628aa6c54ddb8b6e5188e2ae1e1f17f1ffbea71642836040516103889291906108ac565b60405180910390a250565b60006103d66040518060400160405280601781526020017f5765206861766520256420746f74616c20776176657321000000000000000000815250600054610580565b5060005490565b60606002805480602002602001604051908101604052809291908181526020016000905b828210156104e557600084815260209081902060408051606081019091526003850290910180546001600160a01b03168252600181018054929391929184019161044a906108cd565b80601f0160208091040260200160405190810160405280929190818152602001828054610476906108cd565b80156104c35780601f10610498576101008083540402835291602001916104c3565b820191906000526020600020905b8154815290600101906020018083116104a657829003601f168201915b5050505050815260200160028201548152505081526020019060010190610401565b50505050905090565b610531816040516024016105029190610908565b60408051601f198184030181529190526020810180516001600160e01b031663104c13eb60e21b17905261060a565b50565b61057b83838360405160240161054c93929190610922565b60408051601f198184030181529190526020810180516001600160e01b031663e0e9ad4f60e01b17905261060a565b505050565b6105c58282604051602401610596929190610960565b60408051601f198184030181529190526020810180516001600160e01b03166309710a9d60e41b17905261060a565b5050565b6105c582826040516024016105df929190610982565b60408051601f198184030181529190526020810180516001600160e01b031663319af33360e01b1790525b80516a636f6e736f6c652e6c6f67602083016000808483855afa5050505050565b828054610637906108cd565b90600052602060002090601f016020900481019282610659576000855561069f565b82601f1061067257805160ff191683800117855561069f565b8280016001018555821561069f579182015b8281111561069f578251825591602001919060010190610684565b506106ab9291506106af565b5090565b5b808211156106ab57600081556001016106b0565b634e487b7160e01b600052604160045260246000fd5b6000602082840312156106ec57600080fd5b813567ffffffffffffffff8082111561070457600080fd5b818401915084601f83011261071857600080fd5b81358181111561072a5761072a6106c4565b604051601f8201601f19908116603f01168101908382118183101715610752576107526106c4565b8160405282815287602084870101111561076b57600080fd5b826020860160208301376000928101602001929092525095945050505050565b6000815180845260005b818110156107b157602081850181015186830182015201610795565b818111156107c3576000602083870101525b50601f01601f19169290920160200192915050565b60006020808301818452808551808352604092508286019150828160051b87010184880160005b8381101561085657888303603f19018552815180516001600160a01b03168452878101516060898601819052906108388287018261078b565b928901519589019590955250948701949250908601906001016107ff565b509098975050505050505050565b6000821982111561088557634e487b7160e01b600052601160045260246000fd5b500190565b6000826108a757634e487b7160e01b600052601260045260246000fd5b500690565b8281526040602082015260006108c5604083018461078b565b949350505050565b600181811c908216806108e157607f821691505b6020821081141561090257634e487b7160e01b600052602260045260246000fd5b50919050565b60208152600061091b602083018461078b565b9392505050565b606081526000610935606083018661078b565b6001600160a01b03851660208401528281036040840152610956818561078b565b9695505050505050565b604081526000610973604083018561078b565b90508260208301529392505050565b604081526000610995604083018561078b565b905060018060a01b0383166020830152939250505056fea2646970667358221220e755cfbfce1bf116e971f2d9bc123cf76c9582aef24dd21cd0b695cf12e0673764736f6c634300080b003348656c6c6f20776f726c64202c204920616d206120636f6e747261637420616e64204920616d20736d617274",
    "sourcePath": "/home/0xefrain/Documents/buildspace/mywaveportal/contracts/WavePortal.sol",
    "compiler": {
        "name": "solc",
        "version": "0.8.11+commit.d7f03943"
    },
    "functionHashes": {
        "getAllWaves()": "bd43a908",
        "getTotalWaves()": "9a2cdc08",
        "wave(string)": "449d46c0"
    },
    "gasEstimates": {
        "creation": {
            "codeDepositCost": "506000",
            "executionCost": "infinite",
            "totalCost": "infinite"
        },
        "external": {
            "getAllWaves()": "infinite",
            "getTotalWaves()": "infinite",
            "wave(string)": "infinite"
        }
    }
}